:020000040800F2
:1000000008050020450100081F190008B71700085F
:100010001D190008990A0008B11B00080000000023
:100020000000000000000000000000003D1A000871
:100030009B0A000800000000211900083F1A000870
:100040005F0100085F0100085F0100085F01000810
:100050005F0100085F0100085F0100085F01000800
:100060005F0100085F0100085F0100085F010008F0
:100070005F0100085F0100085F0100085F010008E0
:100080005F0100085F0100085F0100085F010008D0
:100090005F0100085F0100085F0100085F010008C0
:1000A0005F0100085F0100085F0100085F010008B0
:1000B0005F0100085F0100085F0100085F010008A0
:1000C0005F0100085F0100085F0100085F01000890
:1000D0005F0100085F0100085F0100085F01000880
:1000E0005F0100085F0100085F0100085F01000870
:1000F0005F0100085F0100085F0100085F01000860
:100100005F0100085F0100085F0100085F0100084F
:100110005F0100085F0100085F0100085F0100083F
:100120005F0100085F0100085F0100085F0100082F
:10013000DFF80CD000F02EFB00480047D125000866
:10014000080500200648804706480047FEE7FEE70E
:10015000FEE7FEE7FEE7FEE7FEE7FEE7FEE7FEE777
:10016000911A000831010008202A04DB203A21FA04
:1001700002F00021704721FA02F3D040C2F12002C0
:100180009140084319467047D2B201E000F8012BB4
:10019000491EFBD270470022F6E710B513460A4607
:1001A00004461946FFF7F0FF204610BD2DE9FE4F2B
:1001B000804681EA0300C00F0C46009021F0004108
:1001C00023F00045B8EB0200A94105D24046214684
:1001D00090461C460B46024623F00040104347D091
:1001E000270DC7F30A00C3F30A510290401A019089
:1001F00040286BDAC3F3130040F4801B009892464A
:1002000020B10023D2EB030A63EB0B0B0198594694
:10021000C0F14002504600F069F906460D465046CE
:100220005946019A00F071F910EB08006141002471
:1002300087EA115284EAE7731A4340D0009A62B306
:10024000019A012A4FEA075215DC001B61EB0201FB
:100250004FF0004202EA0752CDE90042001C41F58E
:10026000801132462B4600F0A8F903B0BDE8F08FAC
:1002700040462146F9E7001B61EB0201001C41F5F5
:10028000801300185B412018A2F5001747EB03010B
:1002900040EAD570B6196D4111E06D084FEA360697
:1002A00045EAC0754FEA0752001B61EB0201001CD2
:1002B00041F5801149084FEA30000019514132469A
:1002C0002B4603B0BDE8F04F00F068B9009801225A
:1002D00040000023D0EB020263EBE073009821465C
:1002E0004FEAE074B8EB000061EB0401E9E783F04A
:1002F00000435BE781F0004158E72DE9FE4F81EABA
:10030000030404F0004421F0004100944FF0000B7E
:1003100023F0004350EA01045ED052EA03045BD0AC
:10032000C3F30A54C1F30A552C44A4F2F3340194E4
:10033000A0FB0254C1F3130141F48011C3F3130372
:1003400043F4801301FB024400FB034E840A970A26
:1003500044EA815447EA8357A4FB076802958D0A53
:1003600005FB07854FEA932C04FB0C542705029DDF
:100370004FEA065847EA1637B5EB08056EEB070C4F
:10038000870E920E47EA811742EA8312A7FB020109
:10039000B6EB0B0164EB00042B0D43EA0C335E1843
:1003A00044EB1C50DA465146E7FB0201C5F3130447
:1003B0004FEA0B3343EA14534FEA0432019C43EAF9
:1003C0000603A4F10C040294009CCDE900B400F0F3
:1003D000F4F803B0BDE8F08F00200146F9E70EB550
:1003E000C10F80EAE0700844CA07002140F233439D
:1003F0008DE80E000A460B4600F0DFF803B000BDA2
:1004000000F0004230F000400AD0C10D01F56071EB
:10041000C0F3160042EA0151C20840071143704779
:1004200000200146704701F0004330B421F0004144
:1004300050EA010206D00A0DA2F56072C1F3130161
:10044000002A02DC30BC00207047440F44EAC1049B
:10045000C100E01830BC00EBC25000F068B830B505
:100460000B46014600202022012409E021FA02F572
:100470009D4205D303FA02F5491B04FA02F528440C
:10048000151EA2F10102F1DC30BD2DE9F05F054639
:10049000002092469B4688460646814640241BE043
:1004A0002846414647462246FFF75EFE53465A46D7
:1004B000C01A914110D311461846224600F016F892
:1004C0002D1A67EB01084F4622460120002100F05B
:1004D0000DF817EB00094E41201EA4F10104DFDCEA
:1004E000484631462A464346BDE8F09F202A04DBB1
:1004F000203A00FA02F1002070479140C2F1200337
:1005000020FA03F3194390407047202A06DBCB17EB
:10051000203A41FA02F043EAE07306E041FA02F3BE
:10052000D040C2F12002914008431946704700298B
:10053000A8BF7047401C490008BF20F00100704769
:1005400010B4B0FA80FC00FA0CF050EA010404BFC9
:1005500010BC704749B1CCF1200421FA04F411FA1F
:100560000CF118BF012121430843A3EB0C01CB1D63
:100570004FEA00614FEA102042BF002010BC7047D4
:1005800000EBC35010440029A4BF10BC7047401CAE
:10059000490008BF20F0010010BC704710B5141EC0
:1005A00073F1000408DA401C41F1000192185B412C
:1005B0001A4301D120F0010010BD2DE9F04D924603
:1005C0009B4611B1B1FA81F202E0B0FA80F220321A
:1005D0009046FFF78BFF04460F4640EA0A0041EAC7
:1005E0000B0153465A46084313D0114653EA010003
:1005F00019D0C8F140025046FFF7B6FD05460E4639
:10060000504659464246FFF771FF084305D0012086
:1006100004E020463946BDE8F08D0020054346EA57
:10062000E0762C4337430A986305E40AA0EB080000
:100630000022FD0A44EA47540A3002D50020014650
:10064000E9E7010510196941DDE90845001969412B
:10065000BDE8F04DA2E72DE9F04D81EA030404F076
:10066000004B21F0004514464FF0000A23F00041F2
:1006700050EA050220D054EA01021DD0C5F30A5702
:100680000246C5F31303C1F31300C1F30A5640F445
:10069000801543F48013A7EB0608101BD64608F21A
:1006A000FD3873EB050002D308F1010801E0921850
:1006B0005B41B8F1000F03DA00200146BDE8F08D80
:1006C00000204FF48011064684460EE0171B73EBA2
:1006D000050705D3121B63EB050306434CEA010C27
:1006E00049084FEA300092185B4150EA0107EDD10A
:1006F00052EA030012D082EA040083EA05010843AB
:1007000005D0101BAB4106D20122002306E00022D7
:100710004FF0004302E06FF0010253101AEB0600A5
:100720004CEB085110EB0A0041EB0B01BDE8F04D1A
:10073000FFF734BFC1F30A52C1F3130140F2FF3394
:1007400041F480119A4202DA00200146704740F2DB
:1007500033439A42A2F2334202DC5242FFF704BD15
:10076000FFF7C4BE30B5041E71F1000404DB4FF086
:100770000044404264EB0101141E73F1000405DBE8
:100780001C464FF00043524263EB0403994208BFFA
:10079000904230BD064C074D06E0E06840F0010392
:1007A00094E8070098471034AC42F6D3FFF7C4FC36
:1007B000BC260008DC26000870B50646012211039D
:1007C0001D4800F069FA1D4D0024A868C006FCD43D
:1007D0003146012000F07EF800222021284600F05A
:1007E0005BFAFC2001F09EF8002001F09BF801204C
:1007F00001F098F8022001F057FEFF2001F092F876
:1008000044EA0044FF2001F08DF844EA0026FF206E
:1008100001F088F840EA0604022001F045FE0122BA
:100820002021284600F038FAB4F5000F01D3A4F1D6
:100830008074204670BD0000000C01400010014093
:100840002DE9F041054601222021204800F024FA3C
:100850001F4A002410680005FCD42946012000F03E
:1008600061F81B4E4FF48055083E00222946304661
:1008700000F012FAFC2001F065F8002001F062F8A7
:10088000012001F05FF8022001F00EFEFF2001F0D0
:1008900059F844EA0044FF2001F054F844EA0027E4
:1008A000FF2001F04FF840EA0704022001F0FCFDB0
:1008B00001222946304600F0EFF9B4F5000F01D3CC
:1008C000A4F180742046BDE8F081000000100140D2
:1008D000080C014070B50E460546012211030F4871
:1008E00000F0DAF90E4C00222021204600F0D4F965
:1008F000A068C006FCD405F00F0040F0500001F0E5
:1009000011F8002001F00EF8304601F00BF82046F7
:10091000BDE870400122202100F0BEB9000C01406A
:10092000001001402DE9F0410F460446012220212C
:10093000114800F0B1F9114E4FF4805500222946BC
:10094000304600F0A9F90D48083001680905FCD4CB
:1009500004F00F0040F0500000F0F4FF002000F021
:10096000F1FF384600F0EEFF29463046BDE8F04181
:10097000012200F091B9000000100140000C01407C
:1009800010B5012211031E4800F086F91D4CA06825
:10099000C006FCD400222021204600F07DF9F02082
:1009A00000F0C0FFA068C006FCD401222021204630
:1009B00000F072F906210020FFF78CFF00210220D1
:1009C000FFF788FF23210320FFF784FF0021042085
:1009D000FFF780FFA068C006FCD40022202120463B
:1009E00000F05AF9F02000F09DFF20468168C9060A
:1009F000FCD40122BDE81040202100F04DB90000D8
:100A0000000C01400010014070B501222021204857
:100A100000F042F91F4C20680005FCD41D4E4FF435
:100A20008055083E00222946304600F035F9F02076
:100A300000F088FF20680005FCD4012229463046DA
:100A400000F02AF906210020FFF76CFF00210220A8
:100A5000FFF768FF23210320FFF764FF0021042034
:100A6000FFF760FF20680005FCD4002229463046CD
:100A700000F012F9F02000F065FF20680005FCD4BA
:100A800029463046BDE87040012200F005B900005B
:100A900000100140080C0140FEE77047704700005D
:100AA0002DE9F84FDFF8C891002409F1040A0AF192
:100AB000040B23460F270BF1040ED1E00125A540BE
:100AC00006EA0502AA4276D1DFF8A8C14E68A6EB75
:100AD0000C0866452BD00DDC032E34D005DC36B374
:100AE000012E19D0022E2FD11BE0112E16D0122E5E
:100AF0002AD119E0B8F5881F19D006DCB8F5803F77
:100B000015D0B8F5801F1FD111E0B8F5001F0ED029
:100B1000B8F5041F18D10AE0CB6815E0CB681B1D9F
:100B200012E0CB6808330FE0CB680C330CE08B6825
:100B30002BB1012B4FF0080303D0456104E00423DF
:100B400002E0056100E00023FF2A01D8064601E02B
:100B500000F104064FEA840501D9A5F12005D6F875
:100B6000008007FA05FC28EA0C0803FA05F548EAB4
:100B70000508C6F800804D68ED0070D53E4DAE69A1
:100B800046F00106AE61AD6924F0030605F00105EB
:100B900000953A4D06EB050CDCF80850A607360F19
:100BA00007FA06F825EA0805DFF8D480404503D1A6
:100BB0004FF0000825E052E0DFF8C880404502D140
:100BC0004FF001081DE0DFF8C080404502D14FF032
:100BD000020816E0DFF8B480404502D14FF0030868
:100BE0000FE0DFF8AC80404502D14FF0040808E088
:100BF000DFF8A080404502D14FF0050801E04FF03A
:100C0000060808FA06F848EA0508CCF808804D6896
:100C1000D9F80060ED034D4601D5164300E0964338
:100C20002E604D68DAF80060AD03554601D51643D5
:100C300000E096432E604D68DBF80060ED025D46F3
:100C400001D5164300E096432E604D68DEF8006043
:100C5000AD02754601D5164300E096432E60641C34
:100C60000A681646E2407FF429AFBDE8F88F00001D
:100C7000000401400000111000100240000001407B
:100C800000080140000C0140001001400014014028
:100C900000180140001C01400AB1016170470904BD
:100CA000FBE700000148806870470000000000205A
:100CB000024881680278114481607047000000207A
:100CC000074810B5016841F010010160032000F0F1
:100CD00067F8002000F006F800F024F8002010BDAE
:100CE0000020024070B50D4D04464FF47A7128780B
:100CF000B1FBF0F00A490968B1FBF0F000F085FCA7
:100D000048B9102C07D200222146501E00F028F8C6
:100D100000206C6070BD012070BD0000000000204C
:100D20000C0000200C4808B5816941F00101816187
:100D3000816901F001010091C16941F08051C161F7
:100D4000C06900F0805000900448416821F0E061E3
:100D500041F00071416008BD0010024000000140F8
:100D6000F0B40E4B1B680C46C3F30223C3F1070516
:100D7000042D00D90425191D072901D2002300E004
:100D8000DB1E012606FA05F1491E214099409E40CE
:100D9000761E16403143F0BC00F01CBF0CED00E0A5
:100DA000064900F0070208684FF6FF03184040EAC2
:100DB0000220034A10430860704700000CED00E079
:100DC0000000FA052DE9F0470F46050061D0434EBB
:100DD000306800F00700B84209D2306820F0070000
:100DE00038433060306800F00700B84251D12868BD
:100DF0003B4C810712D5400703D5606840F4E060A2
:100E000060602878000703D5606840F46050606037
:100E10006068A96820F0F000084360602878C00787
:100E200028D06868012810D02168022810D08907CE
:100E300000292EDA616821F0030101436160FFF7A8
:100E400031FF804641F288390DE021688903EFE7E0
:100E50008901EDE7FFF726FFA0EB0801494502D91C
:100E60000320BDE8F0876068696800F00C00B0EB13
:100E7000810FEFD1306800F00700B8420BD930681D
:100E800020F0070038433060306800F00700B842B7
:100E900001D00120E5E72878400705D56068E968BA
:100EA00020F4E060084360602878000706D5606899
:100EB000296920F4605040EAC100606000F038F811
:100EC0006168084AC1F30311515CC84006490860D3
:100ED00006480068FFF706FF0020C2E70020024036
:100EE00000100240A42600080C000020040000208E
:100EF0000448054900684968044AC1F30221515C6D
:100F0000C84070470C00002000100240B4260008C2
:100F10000448054900684968044AC1F3C221515C8C
:100F2000C84070470C00002000100240B4260008A2
:100F300012A185B00FC98DE80F0014A0144A0068F3
:100F400004905168134801F00C03042B10D0082BB7
:100F50000ED1C1F38343C9031DF803000AD55168BC
:100F600004AAC1F34041515C0A4A5043B0FBF1F07E
:100F700005B0704708494843FAE70000020304053A
:100F8000060708090A0B0C0D0E0F101001020000D5
:100F90000010024000127A0000093D002DE9F84FD0
:100FA000040070D02078C04DC00749D06868C0F3F5
:100FB0008100012807D06868C0F38100022809D1A8
:100FC0006868C00306D52868800339D560680028A2
:100FD000E7D035E06068B0F5803F0BD010B1B0F5D8
:100FE000A02F11D0286820F480302860286820F4D1
:100FF000802002E0286840F480302860606890B16A
:10100000FFF750FE06460AE0286840F4802028607A
:10101000F0E700BFFFF746FE801B642873D82868FE
:101020008003F7D50CE0FFF73DFE064605E000BF64
:10103000FFF738FE801B6428F0D828688003F7D4B7
:1010400020789A4E80074FF001094FF0000839D5FB
:10105000686810F00C0F07D06868C0F381000228A0
:1010600009D16868C00306D42868800714D52069B0
:10107000012808D110E02069B0B1C6F80090FFF750
:1010800011FE074605E00AE1FFF70CFEC01B02282F
:10109000C4D828688007F7D52868616920F0F8006F
:1010A00040EAC10028600DE0C6F80080FFF7FAFDB5
:1010B000074604E0FFF7F6FDC01B022823D8286886
:1010C0008007F7D4207800072CD57948A169D9B1D9
:1010D000C0F80090FFF7E6FD074604E0FFF7E2FDE9
:1010E000C01B02280FD8686A8007F7D571484FF4F3
:1010F000FA510068B0FBF1F0009000BF0098411E6B
:101100000091FAD20EE080E0C0F80080FFF7CAFD3F
:10111000074604E0FFF7C6FDC01B022875D8686AC1
:101120008007F7D42078400760D5E8690027C00021
:1011300008D4E86940F08050E861E869012700F0D0
:10114000805000905C480168C90513D4016883464B
:1011500041F480710160FFF7A5FD824606E000BF03
:10116000FFF7A0FDA0EB0A0064284ED8DBF80000D2
:10117000C005F5D5E06801280AD008B1052813D0CC
:10118000286A20F001002862286A20F0040002E0AA
:10119000286A40F001002862E06841F2883B98B17B
:1011A000FFF780FD82460BE0286A40F004002862C9
:1011B000EEE700BFFFF776FDA0EB0A0159455AD8CC
:1011C000286A8007F6D50CE0FFF76CFD824605E043
:1011D000FFF768FDA0EB0A0159454CD8286A800743
:1011E000F6D41FB1E86920F08050E861E06988B367
:1011F0006968C1F38101022944D00228C6F86080E1
:1012000004D0FFF74FFD044638E034E0FFF74AFD15
:10121000074604E0FFF746FDC01B02282BD82868CC
:101220008001F7D4206AB0F5803F05D16868A168D5
:1012300020F4003008436860D4E908010843696875
:1012400021F4741108436860C6F86090FFF72AFD26
:10125000044606E025E000BFFFF724FD001B02283E
:1012600009D828688001F7D51BE000BFFFF71AFDF9
:10127000001B022802D90320BDE8F88F28688001EE
:10128000F4D40EE00128F7D06868226A00F48031B7
:10129000914204D1616A00F47010884201D00120AB
:1012A000EAE70020E8E700000010024000004242A8
:1012B000800442420C0000200070004070B5040021
:1012C00009D0606A002540B125616561A56294F886
:1012D000510040B10CE0012070BD6068B0F5827F24
:1012E000F4D0E561F2E784F85050204600F040F871
:1012F000022084F851002068016821F0400101605B
:10130000A088218900F4827001F404410843A18976
:1013100001F400610843217C01F002010843217DB2
:1013200001F001010843218B01F400710843217F82
:1013300001F03801084394F8201001F080010843BF
:10134000218D01F40051084321680860A06904213F
:1013500001EA1040216848602068C16921F40061F9
:10136000C1616565012084F85100002070BD000056
:1013700030B585B000240094019402940394254D67
:101380000368254802210322AB421AD1836943F442
:1013900080538361836903F480530493836943F02A
:1013A0000403836180691D4D00F004000490A020B7
:1013B000CDE90001039269462846FFF771FB402002
:1013C0001EE0174DAB4222D1C36943F48043C36191
:1013D000C36903F480430493836943F00803836182
:1013E0008069104D00F0080004904FF42040CDE9D2
:1013F0000001039269462846FFF752FB4FF48040F4
:10140000CDE90004694628460294FFF749FB05B080
:1014100030BD0000003001400010024000080140D3
:1014200000380040000C01402DE9F84F044690F8C8
:10143000500000270A9E1D4692468B464FF0010938
:1014400001280ED0012084F85000FFF72BFC8046C5
:1014500094F85100616801280CD0B1F5827F07D162
:1014600002E00220BDE8F88FA16809B9042801D084
:101470000227C2E0BBF1000F27D0BAF1000F24D041
:101480001DB394F85100042802D0052084F85100BF
:1014900000206065C4F838A0E587A587C4F830B09F
:1014A000E586A5862064606420680168490603D447
:1014B000016841F040010160E068B0F5006F6068CC
:1014C00005D0E8B3012D46D07FE0012795E008B1B3
:1014D000012D39D1206B21680088C860206B801CE9
:1014E0002063E08E401EE0862EE020688168890738
:1014F0000FD5E18E69B1B9F1010F0AD1216B0988CD
:10150000C160206B801C2063E08E401EE0864FF09F
:10151000000920688168C9070CD0E18F51B1C0680B
:10152000A16B0880A06B801CA063E08F401EE08749
:101530004FF00109FFF7B6FBA0EB0800B04200E056
:1015400009E001D3701C50D1E08E0028CDD1E08F8E
:101550000028CAD13FE0206B216800780873206B17
:10156000401C2063E08E401EE0862EE020688168EB
:1015700089070FD5E18E69B1B9F1010F0AD1216B4D
:1015800009780173206B401C2063E08E401EE086CA
:101590004FF0000920688168C9070CD0E18F51B174
:1015A000C068A16B0870A06B401CA063E08F401E58
:1015B000E0874FF00109FFF775FBA0EB0800B04290
:1015C00002D3701C01D010E07EB1E08E0028CDD196
:1015D000E08F0028CAD142463146204600F0C2F9C9
:1015E00028B101272020606507E0032705E0A068F7
:1015F00018B92068C16880680090012084F8510003
:10160000002084F8500038462CE710B5401EB0F199
:10161000807F01D3012010BD4FF0E02460610F21D5
:10162000601700F0D7FA0020A06107202061002099
:1016300010BD70B5040004D094F83D00002510B131
:1016400006E0012070BD84F83C50204600F022F8EE
:10165000242084F83D002068C16821F40051C16055
:10166000204600F017FA2068016921F490410161D9
:101670002068416921F02A0141612068C16841F474
:101680000051C1602564202084F83D0084F83E00AC
:10169000002070BD30B585B0002400940194029400
:1016A000039400681449884224D11448816941F4A4
:1016B00080418161816901F480410491816941F037
:1016C0000401816180690E4D00F0040004904FF424
:1016D0000070009002200190032003906946284684
:1016E000FFF7DEF92815CDE9000469462846029483
:1016F000FFF7D6F905B030BD0038014000100240B8
:10170000000801402DE9F843044690F83D001F46CB
:1017100016460D4620284CD1C5B1BEB194F83C0008
:10172000012846D0012084F83C004FF00008C4F89E
:101730004080212084F83D00FFF7B4FAA68481465A
:10174000E684A068B0F5805F03D004E00120BDE826
:10175000F883206928B12E465FF0000584F83C80AC
:101760000EE00026FAE78021204600F0EFF9A0B94C
:10177000AEB116F8010B21684860E08C401EE08491
:10178000E08C4B464FF0000200970028EBD14FF061
:101790004001204600F0DAF930B10320D7E735F8F0
:1017A000020BC0F30800E6E7202084F83D0000208B
:1017B000CDE70220CBE7FEE72DE9F04385B000241A
:1017C00021480094019402940394816941F004013A
:1017D0008161816901F004010491816941F0100186
:1017E0008161816901F010010491816941F0080172
:1017F00081618069DFF8548000F0080004900022C5
:1018000030214046FFF748FADFF844904FF4C157C3
:10181000002239464846FFF73FFA302001250226CC
:10182000CDE90005CDE9024669464046FFF738F9A3
:1018300000970396CDE9015469464846FFF730F911
:1018400005B0BDE8F0830000001002400010014028
:10185000000C0140104810B50E4901604FF4827130
:101860004160002181600122C160C0E9041252027E
:1018700082613822C0E90721416281620A21C16286
:10188000FFF71CFD002803D0BDE81040FFF706B9A4
:1018900010BD00000030014014000020104810B5B9
:1018A0000E4901604FF48271416000218160012284
:1018B000C160C0E90412520282613022C0E90721EE
:1018C000416281620A21C162FFF7F8FC002803D05F
:1018D000BDE81040FFF7E2B810BD0000003800403E
:1018E0006C0000200C4810B50A4901604FF4E1314A
:1018F0004160002181600C22C160C0E90412816155
:10190000C161FFF796FE002803D0BDE81040FFF745
:10191000C5B810BD00380140C4000020FEE7704784
:101920007047000001B582B04FF47A700090012337
:1019300001AA02A90248FFF777FD9DF804000EBD39
:101940001400002001B582B04FF47A70009001239A
:1019500001AA02A90248FFF767FD9DF804000EBD29
:101960006C00002038B50B4600920446002280210E
:1019700000F008F8002804D0606D40F02000606599
:10198000032038BD2DE9F8431E469146884604469B
:10199000089DFFF787F9401B351AFFF783F90746C3
:1019A00025480068C0F3CB30684338E0701C37D05E
:1019B000FFF778F9C01BA84203D215B1009860B3B5
:1019C0002CE02068416821F0E00141606068B0F5DA
:1019D000827F0BD1A068B0F5004F02D0B0F5806FC8
:1019E00004D12068016821F040010160A06AB0F5CF
:1019F000005F09D12068016821F40051016020686E
:101A0000016841F400510160012084F85100002078
:101A100084F850000320BDE8F8830025401E0090A4
:101A20002068816838EA010004D000214945BDD111
:101A30000020F0E70121F9E70C0000207047FFF7D4
:101A400037B930B58FB028216846FEF7A4FB1421C2
:101A50000AA8FEF7A0FB01210804CDE9001000242C
:101A6000029402250491CDE907504FF4E01009904B
:101A70006846FFF793FA0F20CDE90A056802CDE921
:101A80000C4002210AA80E94FFF79CF90FB030BD5C
:101A90007047000070B5044600680169E26821F4EF
:101AA0004051114301612169A068084361690843FD
:101AB0002168CA6841F20C639A430243CA602068F5
:101AC0004169A26921F44071114341611E492068B6
:101AD000884202D1FFF71CFA01E0FFF709FA00EB98
:101AE000C00101EB0012606864218000B2FBF0F3DA
:101AF000B3FBF1F36FF018067343B2FBF0F5B2FBE2
:101B0000F0F605EB8305322303EB0515B5FBF1F584
:101B1000B6FBF1F605F0F00505EB0615B2FBF0F6A5
:101B2000B2FBF0F0B0FBF1F06FF01802504306EB9F
:101B3000800003EB0010B0FBF1F0216800F00F0013
:101B40002844886070BD0000003801402DE9F04154
:101B5000984617460E460446069D1DE0681C1BD09D
:101B60002DB1FFF79FF8A0EB0800A84214D9206818
:101B7000C16821F4D071C1602068416921F0010180
:101B80004161202084F83D0084F83E00002084F864
:101B90003C000320BDE8F0812068006836EA0000C0
:101BA00004D00020B842D9D00020F3E70120F9E7A3
:101BB000FEE700000FB4054B10B503A9044A0298D4
:101BC00000F0DAF810BC5DF814FB0000B92500083D
:101BD000100000200907090E002804DB00F1E020B6
:101BE00080F80014704700F00F0000F1E02080F84A
:101BF000141D704702E008C8121F08C1002AFAD15C
:101C000070477047002001E001C1121F002AFBD17C
:101C1000704700002DE9FF5FDDE90220010DDDF8CE
:101C200038B0024318D044F61050A1F2FF314143BE
:101C30000D140F98012820D0A5EB0B00401C5FEA83
:101C4000000A4FF00004474EDFF81C91A0465046B2
:101C500016D5CAF1000728E00F98012443A20128F5
:101C600008D0002100980F9BC0E90021C0E9024381
:101C7000BDE8FF9F6FEA0B01F4E7CBF10000DEE760
:101C8000074612E0F80707D0224633464046494649
:101C9000FEF733FB804689462246334610461946F6
:101CA000FEF72BFB04460E467F10002FEAD1DDE93C
:101CB0000201BAF1000F42464B4602DAFEF71DFB65
:101CC00001E0FEF7C8FC04460E460022284BFEF752
:101CD00049FD03D84FF0FF30014607E00022254BB5
:101CE00020463146FEF762FAFEF724FD102409E093
:101CF000002C0ADB0A220023FEF7C7FB019B3032CF
:101D00001A55641E50EA0102F2D1641C019AC4F112
:101D1000110314440F9A012A03D0012208430DD164
:101D20000AE0084304D000204FF0110B0F9080E729
:101D3000A3EB0B056D1E0DE05B4504DD4FF00002CB
:101D400005F1010504E003DA4FF00002A5F10105F9
:101D5000002AECD000980F99C0E90231C0E9004593
:101D600086E70000000024400000F03F3000000043
:101D70000000F0430000E03F2DE9FF4F95B09B4687
:101D80008946064600250FE2252877D100242746FC
:101D9000F84A0121059400E0044316F8013F203B76
:101DA00001FA03F01042F7D130782A2811D06FF0F1
:101DB0002F033078A0F13002092A16D8059A44F092
:101DC000020402EB820203EB42021044761C0590EF
:101DD000EFE759F8042B0592002A03DA504244F445
:101DE0000054059044F00204761C30782E2816D159
:101DF00016F8010F44F004042A280DD06FF02F02CA
:101E00003078A0F13003092B09D807EB870302EBE8
:101E10004303C718761CF3E759F8047B761C307827
:101E20006C280FD006DC4C2817D068280DD06A2803
:101E300014D104E0742810D07A280FD10DE044F4B6
:101E400000140AE044F4801401E044F44014727871
:101E5000824202D104F58014761C761C3078662804
:101E60000BD013DC582877D009DC002875D0452822
:101E7000F6D04628F4D047281AD19DE118E063280F
:101E800035D0642879D0652812D195E1702873D0B7
:101E900008DC6728F1D069286FD06E280DD06F2834
:101EA00006D1B5E073282CD0752875D0782874D069
:101EB0005A46179990476D1C75E1C4F302500228E9
:101EC00009D003280DD0D9F8001004280DD00D60DA
:101ED00009F1040967E1D9F80010EA17C1E90052D5
:101EE000F6E7D9F800100D80F2E70D70F0E719F869
:101EF000041B8DF8001000208DF80100EA46012037
:101F000003E059F804AB4FF0FF3061074FF00001D8
:101F100002D40DE008F101018846B9420FDA80458C
:101F2000F8DB1AF808100029F4D108E008F10101E3
:101F300088468142FADB1AF808100029F6D1059884
:101F40005B46A0EB080721463846179A00F094FA42
:101F5000284400EB080507E04DE029E10DE01AF800
:101F6000010B5A4617999047B8F10108F7D25B4622
:101F700021463846179A13E142E00A220092C4F340
:101F800002524FF0000A022A08D059F804CB032A63
:101F90004FEAEC710AD00DE029E02AE009F10701CF
:101FA00021F00702F2E802C1914609E00FFA8CFC29
:101FB0004FEAEC71042A03D14FFA8CFC4FEAEC7122
:101FC000002907DA0A460021DCF1000C61EB02016E
:101FD0002D2202E0220504D52B228DF804200122B7
:101FE00003E0E20701D02022F7E7904659E00A21FA
:101FF00002E010220DE010214FF0000A00910BE0EA
:1020000010224FF0000A44F004040827009203E075
:1020100008224FF0000A0092C4F30252022A05D0AF
:1020200059F804CB0021032A08D009E009F107017F
:1020300021F00702F2E802C1914605E01FFA8CFC8C
:10204000042A01D10CF0FF0C4FF00008220728D51C
:10205000702806D0009B83F0100353EA0A0305D0D2
:102060000EE040228DF80420012208E05CEA010223
:1020700006D030228DF804208DF80500022290460B
:10208000009B83F0080353EA0A030AD15CEA0102C9
:1020900001D1620705D530228DF804204FF00108E8
:1020A0007F1E582804D034A003900EA802900DE0A3
:1020B00036A0F9E753466046009AFEF7E6F98446F3
:1020C0000398825C0298401E029002705CEA010054
:1020D000F0D1029806A9081A00F1200A600702D57B
:1020E00024F4803400E00127574502DDA7EB0A0005
:1020F00000E0002000EB0A01009005984144401ADE
:102100000590E00306D45B462146179A059800F037
:10211000B3F90544002706E001A85A46C05D1799A7
:1021200090476D1C7F1C4745F6DBE0030CD55B46F2
:102130002146179A059800F09FF9054404E03020E5
:102140005A46179990476D1C0099481E0090002927
:10215000F5DC08E0029802995A460078491C029181
:10216000179990476D1CBAF10001AAF1010AF1DC40
:1021700065E100000928010030313233343536374B
:1021800038396162636465660000000030313233C3
:102190003435363738394142434445460000000063
:1021A00000F058F90544761C307800287FF4ECAD37
:1021B00019B02846BDE8F08F620700D4062709F160
:1021C000070222F0070CFCE80223E14603F0004876
:1021D0005FEA080C02D00FF2702C0DE05FEA045C9D
:1021E00002D50FF2682C07E05FEAC47C02D00FF240
:1021F000602C01E0AFF2700C4FF0FF3823F0004389
:10220000CDF850C065280CD006DC452809D04628FA
:102210001DD047283DD13DE0662818D067287ED1E3
:1022200038E00021112F01DB112000E0781CCDE9FE
:10223000000106A90EA8FFF7EDFCDDE90F010E9ADB
:1022400003910021009207F1010A04914DE04FF043
:1022500000400097CDE9011006A90EA8FFF7DAFCAF
:10226000DDE90F0203920E9B11990022DDF80CA00C
:102270000093049211B9791C00EB010AB7EB0A0034
:1022800004D4C0F1FF3007F1010A0490AAEB070063
:10229000019044E0012F00DA01270021112F01DD18
:1022A000112000E03846CDE9000106A90EA8FFF78D
:1022B000B1FCDDE90F010E9A039100210491009217
:1022C000BA4621070CD40399514500DA8A46BAF17F
:1022D000010F05DD009AAAF10101515C302908D0F7
:1022E000B84202DA10F1040F06DA0121CDE901103B
:1022F00015E0AAF10101E9E7002805DC0499014491
:102300000491AAEB000102E0411C514500DD8A4620
:102310000499401A401C01904FF0004002902007A1
:1023200004D40198504501DBCDF8048000208DF8DD
:102330004F0002980DF14F07B0F1004F25D02B2030
:102340000E9002984FF0020800280CDA40420290EA
:102350002D200E9007E00A210298FEF780F8303118
:10236000029007F8011DB8F10001A8F10108F2DCA4
:1023700002980028EFD1791E0E980870307800F08E
:10238000200040F0450007F8020D12A8C01B00F124
:1023900007081498007800B1012000EB0A010198A9
:1023A00001EBE07105984144401A401E0590E0039E
:1023B00006D45B462146179A059800F05DF805445F
:1023C0001498007818B15A46179990476D1CE0038D
:1023D00024D55B462146179A059800F04DF8054430
:1023E0001CE00498002807DBDDE90301884203DDD7
:1023F0000098405C179901E0179930205A469047A1
:10240000049805F10105401C04900198401E0190BC
:1024100004D12E205A46179990476D1CBAF100013D
:10242000AAF1010ADDDC05E017F8010B5A461799FD
:1024300090476D1CB8F10001A8F10108F4DC5B467F
:102440002146179A0598ABE62D0000002B000000EE
:10245000200000002DE9F041044600251E461746E5
:10246000880404D405E039462020B0476D1C641E62
:10247000F9D52846BDE8F0812DE9F0410446002554
:102480001E469046C80301D5302700E02027880467
:1024900004D505E041463846B0476D1C641EF9D5A9
:1024A0002846BDE8F08100002DE9F0414FF0E0241E
:1024B0000546A769FEF7F6FB064605EBC500C50015
:1024C000BD420BD9FEF7EEFBB042FBD00849781BAA
:1024D0000844A1698142FCD8BDE8F0817D1BA06958
:1024E000A842F9D9FEF7DEFBB042F8D0F4E70000CD
:1024F00040190100F0B595B00026074635466C46F8
:102500003846FEF759F944F825006D1C152DF7DB08
:102510000021084601E000200AE004EB800354F8A3
:1025200020205D68AA4202DD44F820505A60401C19
:10253000C1F115028242F0DC491C1429EBDB0120B9
:1025400054F82010401C0E441428F9DB132096FB8D
:10255000F0F015B0F0BDF0B595B000260746354651
:102560006C463846FEF76CF944F825006D1C152DB5
:10257000F7DB0021084601E000200AE004EB8003BD
:1025800054F820205D68AA4202DD44F820505A60C9
:10259000401CC1F115028242F0DC491C1429EBDB1E
:1025A000012054F82010401C0E441428F9DB13209D
:1025B00096FBF0F015B0F0BD13B54FF6FF73012296
:1025C00069460248FFF79EF800981CBDC400002031
:1025D0008AB0FEF775FBFFF734FAFFF7EDF8FFF767
:1025E0005DF9FFF77FF9FFF735F9FEF7C9F9FEF757
:1025F0000BFA2320FFF7AFFF1F4FDFF88080DFF8D3
:102600008090DFF880A0DFF880B06E4605AD012035
:10261000FFF770FF00902320FFF76CFF019001206F
:10262000FFF799FF02902320FFF795FF0024039006
:1026300056F82400FDF7D3FE3A464346FDF75DFE0B
:102640004A465346FDF759FE5A46104BFDF74FFEDA
:10265000FDF7E9FE45F82400FDF7D2FE02460B46E1
:1026600021460BA0FFF7A6FA641C042CE0DB0CA0AB
:10267000FFF7A0FACBE7000086C613419C87433FD3
:10268000A9CDA7AAAAAA20409A9999999999F13F08
:1026900063682564A3BA20252E34664E0900000025
:1026A0000D0A000000000000000000000102030409
:1026B000060708090000000001020304DC260008E8
:1026C0000000002014000000F41B0008F0260008A1
:1026D00014000020F4040000041C000801000000A5
:1026E00010000000000000000024F40000000000C2
:0400000508000131BD
:00000001FF
